{
  "_format": "hh-sol-artifact-1",
  "contractName": "TamagoSan",
  "sourceName": "contracts/TamagoSan.sol",
  "abi": [
    {
      "inputs": [],
      "stateMutability": "nonpayable",
      "type": "constructor"
    },
    {
      "inputs": [],
      "name": "ApprovalCallerNotOwnerNorApproved",
      "type": "error"
    },
    {
      "inputs": [],
      "name": "ApprovalQueryForNonexistentToken",
      "type": "error"
    },
    {
      "inputs": [],
      "name": "BalanceQueryForZeroAddress",
      "type": "error"
    },
    {
      "inputs": [],
      "name": "MintERC2309QuantityExceedsLimit",
      "type": "error"
    },
    {
      "inputs": [],
      "name": "MintToZeroAddress",
      "type": "error"
    },
    {
      "inputs": [],
      "name": "MintZeroQuantity",
      "type": "error"
    },
    {
      "inputs": [],
      "name": "OwnerQueryForNonexistentToken",
      "type": "error"
    },
    {
      "inputs": [],
      "name": "OwnershipNotInitializedForExtraData",
      "type": "error"
    },
    {
      "inputs": [],
      "name": "TransferCallerNotOwnerNorApproved",
      "type": "error"
    },
    {
      "inputs": [],
      "name": "TransferFromIncorrectOwner",
      "type": "error"
    },
    {
      "inputs": [],
      "name": "TransferToNonERC721ReceiverImplementer",
      "type": "error"
    },
    {
      "inputs": [],
      "name": "TransferToZeroAddress",
      "type": "error"
    },
    {
      "inputs": [],
      "name": "URIQueryForNonexistentToken",
      "type": "error"
    },
    {
      "anonymous": false,
      "inputs": [
        {
          "indexed": true,
          "internalType": "address",
          "name": "owner",
          "type": "address"
        },
        {
          "indexed": true,
          "internalType": "address",
          "name": "approved",
          "type": "address"
        },
        {
          "indexed": true,
          "internalType": "uint256",
          "name": "tokenId",
          "type": "uint256"
        }
      ],
      "name": "Approval",
      "type": "event"
    },
    {
      "anonymous": false,
      "inputs": [
        {
          "indexed": true,
          "internalType": "address",
          "name": "owner",
          "type": "address"
        },
        {
          "indexed": true,
          "internalType": "address",
          "name": "operator",
          "type": "address"
        },
        {
          "indexed": false,
          "internalType": "bool",
          "name": "approved",
          "type": "bool"
        }
      ],
      "name": "ApprovalForAll",
      "type": "event"
    },
    {
      "anonymous": false,
      "inputs": [
        {
          "indexed": true,
          "internalType": "uint256",
          "name": "fromTokenId",
          "type": "uint256"
        },
        {
          "indexed": false,
          "internalType": "uint256",
          "name": "toTokenId",
          "type": "uint256"
        },
        {
          "indexed": true,
          "internalType": "address",
          "name": "from",
          "type": "address"
        },
        {
          "indexed": true,
          "internalType": "address",
          "name": "to",
          "type": "address"
        }
      ],
      "name": "ConsecutiveTransfer",
      "type": "event"
    },
    {
      "anonymous": false,
      "inputs": [
        {
          "indexed": true,
          "internalType": "address",
          "name": "previousOwner",
          "type": "address"
        },
        {
          "indexed": true,
          "internalType": "address",
          "name": "newOwner",
          "type": "address"
        }
      ],
      "name": "OwnershipTransferred",
      "type": "event"
    },
    {
      "anonymous": false,
      "inputs": [
        {
          "indexed": true,
          "internalType": "bytes32",
          "name": "role",
          "type": "bytes32"
        },
        {
          "indexed": true,
          "internalType": "bytes32",
          "name": "previousAdminRole",
          "type": "bytes32"
        },
        {
          "indexed": true,
          "internalType": "bytes32",
          "name": "newAdminRole",
          "type": "bytes32"
        }
      ],
      "name": "RoleAdminChanged",
      "type": "event"
    },
    {
      "anonymous": false,
      "inputs": [
        {
          "indexed": true,
          "internalType": "bytes32",
          "name": "role",
          "type": "bytes32"
        },
        {
          "indexed": true,
          "internalType": "address",
          "name": "account",
          "type": "address"
        },
        {
          "indexed": true,
          "internalType": "address",
          "name": "sender",
          "type": "address"
        }
      ],
      "name": "RoleGranted",
      "type": "event"
    },
    {
      "anonymous": false,
      "inputs": [
        {
          "indexed": true,
          "internalType": "bytes32",
          "name": "role",
          "type": "bytes32"
        },
        {
          "indexed": true,
          "internalType": "address",
          "name": "account",
          "type": "address"
        },
        {
          "indexed": true,
          "internalType": "address",
          "name": "sender",
          "type": "address"
        }
      ],
      "name": "RoleRevoked",
      "type": "event"
    },
    {
      "anonymous": false,
      "inputs": [
        {
          "indexed": true,
          "internalType": "address",
          "name": "from",
          "type": "address"
        },
        {
          "indexed": true,
          "internalType": "address",
          "name": "to",
          "type": "address"
        },
        {
          "indexed": true,
          "internalType": "uint256",
          "name": "tokenId",
          "type": "uint256"
        }
      ],
      "name": "Transfer",
      "type": "event"
    },
    {
      "inputs": [],
      "name": "DEFAULT_ADMIN_ROLE",
      "outputs": [
        {
          "internalType": "bytes32",
          "name": "",
          "type": "bytes32"
        }
      ],
      "stateMutability": "view",
      "type": "function"
    },
    {
      "inputs": [],
      "name": "FREE_MINT",
      "outputs": [
        {
          "internalType": "uint256",
          "name": "",
          "type": "uint256"
        }
      ],
      "stateMutability": "view",
      "type": "function"
    },
    {
      "inputs": [],
      "name": "MAX_FREE_PER_WALLET",
      "outputs": [
        {
          "internalType": "uint256",
          "name": "",
          "type": "uint256"
        }
      ],
      "stateMutability": "view",
      "type": "function"
    },
    {
      "inputs": [],
      "name": "MAX_PER_WALLET",
      "outputs": [
        {
          "internalType": "uint256",
          "name": "",
          "type": "uint256"
        }
      ],
      "stateMutability": "view",
      "type": "function"
    },
    {
      "inputs": [
        {
          "internalType": "address",
          "name": "to",
          "type": "address"
        },
        {
          "internalType": "uint256",
          "name": "tokenId",
          "type": "uint256"
        }
      ],
      "name": "approve",
      "outputs": [],
      "stateMutability": "payable",
      "type": "function"
    },
    {
      "inputs": [
        {
          "internalType": "address",
          "name": "owner",
          "type": "address"
        }
      ],
      "name": "balanceOf",
      "outputs": [
        {
          "internalType": "uint256",
          "name": "",
          "type": "uint256"
        }
      ],
      "stateMutability": "view",
      "type": "function"
    },
    {
      "inputs": [],
      "name": "basePrice",
      "outputs": [
        {
          "internalType": "uint256",
          "name": "",
          "type": "uint256"
        }
      ],
      "stateMutability": "view",
      "type": "function"
    },
    {
      "inputs": [],
      "name": "freeMinted",
      "outputs": [
        {
          "internalType": "uint256",
          "name": "",
          "type": "uint256"
        }
      ],
      "stateMutability": "view",
      "type": "function"
    },
    {
      "inputs": [
        {
          "internalType": "uint256",
          "name": "tokenId",
          "type": "uint256"
        }
      ],
      "name": "getApproved",
      "outputs": [
        {
          "internalType": "address",
          "name": "",
          "type": "address"
        }
      ],
      "stateMutability": "view",
      "type": "function"
    },
    {
      "inputs": [],
      "name": "getOwnedNftIDs",
      "outputs": [
        {
          "internalType": "uint256[]",
          "name": "",
          "type": "uint256[]"
        }
      ],
      "stateMutability": "view",
      "type": "function"
    },
    {
      "inputs": [
        {
          "internalType": "bytes32",
          "name": "role",
          "type": "bytes32"
        }
      ],
      "name": "getRoleAdmin",
      "outputs": [
        {
          "internalType": "bytes32",
          "name": "",
          "type": "bytes32"
        }
      ],
      "stateMutability": "view",
      "type": "function"
    },
    {
      "inputs": [
        {
          "internalType": "uint256",
          "name": "tamagosanID",
          "type": "uint256"
        }
      ],
      "name": "getStakedTraits",
      "outputs": [
        {
          "internalType": "uint256[]",
          "name": "",
          "type": "uint256[]"
        }
      ],
      "stateMutability": "view",
      "type": "function"
    },
    {
      "inputs": [
        {
          "internalType": "bytes32",
          "name": "role",
          "type": "bytes32"
        },
        {
          "internalType": "address",
          "name": "account",
          "type": "address"
        }
      ],
      "name": "grantRole",
      "outputs": [],
      "stateMutability": "nonpayable",
      "type": "function"
    },
    {
      "inputs": [
        {
          "internalType": "address",
          "name": "_address",
          "type": "address"
        }
      ],
      "name": "hasFreeMint",
      "outputs": [
        {
          "internalType": "bool",
          "name": "",
          "type": "bool"
        }
      ],
      "stateMutability": "view",
      "type": "function"
    },
    {
      "inputs": [
        {
          "internalType": "bytes32",
          "name": "role",
          "type": "bytes32"
        },
        {
          "internalType": "address",
          "name": "account",
          "type": "address"
        }
      ],
      "name": "hasRole",
      "outputs": [
        {
          "internalType": "bool",
          "name": "",
          "type": "bool"
        }
      ],
      "stateMutability": "view",
      "type": "function"
    },
    {
      "inputs": [
        {
          "internalType": "address",
          "name": "owner",
          "type": "address"
        },
        {
          "internalType": "address",
          "name": "operator",
          "type": "address"
        }
      ],
      "name": "isApprovedForAll",
      "outputs": [
        {
          "internalType": "bool",
          "name": "",
          "type": "bool"
        }
      ],
      "stateMutability": "view",
      "type": "function"
    },
    {
      "inputs": [],
      "name": "name",
      "outputs": [
        {
          "internalType": "string",
          "name": "",
          "type": "string"
        }
      ],
      "stateMutability": "view",
      "type": "function"
    },
    {
      "inputs": [
        {
          "internalType": "address",
          "name": "",
          "type": "address"
        },
        {
          "internalType": "address",
          "name": "",
          "type": "address"
        },
        {
          "internalType": "uint256[]",
          "name": "",
          "type": "uint256[]"
        },
        {
          "internalType": "uint256[]",
          "name": "",
          "type": "uint256[]"
        },
        {
          "internalType": "bytes",
          "name": "",
          "type": "bytes"
        }
      ],
      "name": "onERC1155BatchReceived",
      "outputs": [
        {
          "internalType": "bytes4",
          "name": "",
          "type": "bytes4"
        }
      ],
      "stateMutability": "nonpayable",
      "type": "function"
    },
    {
      "inputs": [
        {
          "internalType": "address",
          "name": "",
          "type": "address"
        },
        {
          "internalType": "address",
          "name": "",
          "type": "address"
        },
        {
          "internalType": "uint256",
          "name": "",
          "type": "uint256"
        },
        {
          "internalType": "uint256",
          "name": "",
          "type": "uint256"
        },
        {
          "internalType": "bytes",
          "name": "",
          "type": "bytes"
        }
      ],
      "name": "onERC1155Received",
      "outputs": [
        {
          "internalType": "bytes4",
          "name": "",
          "type": "bytes4"
        }
      ],
      "stateMutability": "nonpayable",
      "type": "function"
    },
    {
      "inputs": [],
      "name": "owner",
      "outputs": [
        {
          "internalType": "address",
          "name": "",
          "type": "address"
        }
      ],
      "stateMutability": "view",
      "type": "function"
    },
    {
      "inputs": [],
      "name": "ownerMint",
      "outputs": [],
      "stateMutability": "nonpayable",
      "type": "function"
    },
    {
      "inputs": [
        {
          "internalType": "uint256",
          "name": "tokenId",
          "type": "uint256"
        }
      ],
      "name": "ownerOf",
      "outputs": [
        {
          "internalType": "address",
          "name": "",
          "type": "address"
        }
      ],
      "stateMutability": "view",
      "type": "function"
    },
    {
      "inputs": [
        {
          "internalType": "address",
          "name": "to",
          "type": "address"
        },
        {
          "internalType": "uint256[]",
          "name": "tokenIDs",
          "type": "uint256[]"
        },
        {
          "internalType": "bytes32",
          "name": "messageHash",
          "type": "bytes32"
        },
        {
          "internalType": "bytes",
          "name": "signature",
          "type": "bytes"
        },
        {
          "internalType": "uint256",
          "name": "_quantity",
          "type": "uint256"
        }
      ],
      "name": "randomFreeMint",
      "outputs": [],
      "stateMutability": "nonpayable",
      "type": "function"
    },
    {
      "inputs": [
        {
          "internalType": "address",
          "name": "to",
          "type": "address"
        },
        {
          "internalType": "uint256[]",
          "name": "tokenIDs",
          "type": "uint256[]"
        },
        {
          "internalType": "bytes32",
          "name": "messageHash",
          "type": "bytes32"
        },
        {
          "internalType": "bytes",
          "name": "signature",
          "type": "bytes"
        },
        {
          "internalType": "uint256",
          "name": "_quantity",
          "type": "uint256"
        }
      ],
      "name": "randomFreeMint2",
      "outputs": [],
      "stateMutability": "nonpayable",
      "type": "function"
    },
    {
      "inputs": [
        {
          "internalType": "address",
          "name": "to",
          "type": "address"
        },
        {
          "internalType": "uint256[]",
          "name": "tokenIDs",
          "type": "uint256[]"
        },
        {
          "internalType": "bytes32",
          "name": "messageHash",
          "type": "bytes32"
        },
        {
          "internalType": "bytes",
          "name": "signature",
          "type": "bytes"
        },
        {
          "internalType": "uint256",
          "name": "_quantity",
          "type": "uint256"
        }
      ],
      "name": "randomMint",
      "outputs": [],
      "stateMutability": "payable",
      "type": "function"
    },
    {
      "inputs": [],
      "name": "renounceOwnership",
      "outputs": [],
      "stateMutability": "nonpayable",
      "type": "function"
    },
    {
      "inputs": [
        {
          "internalType": "bytes32",
          "name": "role",
          "type": "bytes32"
        },
        {
          "internalType": "address",
          "name": "account",
          "type": "address"
        }
      ],
      "name": "renounceRole",
      "outputs": [],
      "stateMutability": "nonpayable",
      "type": "function"
    },
    {
      "inputs": [
        {
          "internalType": "bytes32",
          "name": "role",
          "type": "bytes32"
        },
        {
          "internalType": "address",
          "name": "account",
          "type": "address"
        }
      ],
      "name": "revokeRole",
      "outputs": [],
      "stateMutability": "nonpayable",
      "type": "function"
    },
    {
      "inputs": [
        {
          "internalType": "address",
          "name": "from",
          "type": "address"
        },
        {
          "internalType": "address",
          "name": "to",
          "type": "address"
        },
        {
          "internalType": "uint256",
          "name": "tokenId",
          "type": "uint256"
        }
      ],
      "name": "safeTransferFrom",
      "outputs": [],
      "stateMutability": "payable",
      "type": "function"
    },
    {
      "inputs": [
        {
          "internalType": "address",
          "name": "from",
          "type": "address"
        },
        {
          "internalType": "address",
          "name": "to",
          "type": "address"
        },
        {
          "internalType": "uint256",
          "name": "tokenId",
          "type": "uint256"
        },
        {
          "internalType": "bytes",
          "name": "_data",
          "type": "bytes"
        }
      ],
      "name": "safeTransferFrom",
      "outputs": [],
      "stateMutability": "payable",
      "type": "function"
    },
    {
      "inputs": [
        {
          "internalType": "address",
          "name": "operator",
          "type": "address"
        },
        {
          "internalType": "bool",
          "name": "approved",
          "type": "bool"
        }
      ],
      "name": "setApprovalForAll",
      "outputs": [],
      "stateMutability": "nonpayable",
      "type": "function"
    },
    {
      "inputs": [
        {
          "internalType": "uint256",
          "name": "price",
          "type": "uint256"
        }
      ],
      "name": "setPrice",
      "outputs": [],
      "stateMutability": "nonpayable",
      "type": "function"
    },
    {
      "inputs": [
        {
          "internalType": "bytes",
          "name": "signature",
          "type": "bytes"
        }
      ],
      "name": "splitSignature",
      "outputs": [
        {
          "internalType": "uint8",
          "name": "v",
          "type": "uint8"
        },
        {
          "internalType": "bytes32",
          "name": "r",
          "type": "bytes32"
        },
        {
          "internalType": "bytes32",
          "name": "s",
          "type": "bytes32"
        }
      ],
      "stateMutability": "pure",
      "type": "function"
    },
    {
      "inputs": [
        {
          "internalType": "uint256",
          "name": "tamagosanID",
          "type": "uint256"
        },
        {
          "internalType": "uint256[]",
          "name": "tokenIDs",
          "type": "uint256[]"
        },
        {
          "internalType": "uint256[]",
          "name": "stakeIDs",
          "type": "uint256[]"
        },
        {
          "internalType": "uint256[]",
          "name": "amounts",
          "type": "uint256[]"
        }
      ],
      "name": "stakeParts",
      "outputs": [],
      "stateMutability": "nonpayable",
      "type": "function"
    },
    {
      "inputs": [
        {
          "internalType": "bytes4",
          "name": "interfaceId",
          "type": "bytes4"
        }
      ],
      "name": "supportsInterface",
      "outputs": [
        {
          "internalType": "bool",
          "name": "",
          "type": "bool"
        }
      ],
      "stateMutability": "view",
      "type": "function"
    },
    {
      "inputs": [],
      "name": "symbol",
      "outputs": [
        {
          "internalType": "string",
          "name": "",
          "type": "string"
        }
      ],
      "stateMutability": "view",
      "type": "function"
    },
    {
      "inputs": [
        {
          "internalType": "uint256",
          "name": "_tokenId",
          "type": "uint256"
        }
      ],
      "name": "tokenURI",
      "outputs": [
        {
          "internalType": "string",
          "name": "",
          "type": "string"
        }
      ],
      "stateMutability": "view",
      "type": "function"
    },
    {
      "inputs": [],
      "name": "totalSupply",
      "outputs": [
        {
          "internalType": "uint256",
          "name": "",
          "type": "uint256"
        }
      ],
      "stateMutability": "view",
      "type": "function"
    },
    {
      "inputs": [],
      "name": "traits",
      "outputs": [
        {
          "internalType": "contract Traits",
          "name": "",
          "type": "address"
        }
      ],
      "stateMutability": "view",
      "type": "function"
    },
    {
      "inputs": [
        {
          "internalType": "address",
          "name": "from",
          "type": "address"
        },
        {
          "internalType": "address",
          "name": "to",
          "type": "address"
        },
        {
          "internalType": "uint256",
          "name": "tokenId",
          "type": "uint256"
        }
      ],
      "name": "transferFrom",
      "outputs": [],
      "stateMutability": "payable",
      "type": "function"
    },
    {
      "inputs": [
        {
          "internalType": "address",
          "name": "newOwner",
          "type": "address"
        }
      ],
      "name": "transferOwnership",
      "outputs": [],
      "stateMutability": "nonpayable",
      "type": "function"
    },
    {
      "inputs": [],
      "name": "tsan",
      "outputs": [
        {
          "internalType": "contract Tsan",
          "name": "",
          "type": "address"
        }
      ],
      "stateMutability": "view",
      "type": "function"
    },
    {
      "inputs": [
        {
          "internalType": "uint256",
          "name": "tamagosanID",
          "type": "uint256"
        },
        {
          "internalType": "uint256[]",
          "name": "tokenIDs",
          "type": "uint256[]"
        },
        {
          "internalType": "uint256[]",
          "name": "unstakeIDs",
          "type": "uint256[]"
        },
        {
          "internalType": "uint256[]",
          "name": "unstakeAmounts",
          "type": "uint256[]"
        }
      ],
      "name": "unstakeParts",
      "outputs": [],
      "stateMutability": "nonpayable",
      "type": "function"
    },
    {
      "inputs": [
        {
          "internalType": "address",
          "name": "to",
          "type": "address"
        }
      ],
      "name": "withdraw",
      "outputs": [],
      "stateMutability": "nonpayable",
      "type": "function"
    }
  ],
  "bytecode": "0x600a80546001600160a01b031990811673abe68a0442cf4eed794820118e4f3ffdf619d29f17909155600b805490911673765138b367747ca9ef2eaf46f13e67877d94063217905565e35fa931a000600c5561270f600d556002600e5560c8600f55600160105560006011557f9f2df0fed2c77648de5860a4cc508cd0818c85b8b8a1ab4ceeef8d981c8956a660145560e060409081526080818152906200337460a039601690620000b290826200030d565b50348015620000c057600080fd5b506040518060400160405280600d81526020016c15185b5859dbdcd85b88139195609a1b8152506040518060400160405280600681526020016554414d41474f60d01b81525081600290816200011791906200030d565b5060036200012682826200030d565b5050600160005550620001393362000162565b6014546200015c9073396e1d4d0dc9e86eff33f2cf9fe4f6f2f2fb1164620001b4565b620003d9565b600880546001600160a01b038381166001600160a01b0319831681179093556040519116919082907f8be0079c531659141344cd1fd0a4f28419497f9722a3daafe3b4186f6b6457e090600090a35050565b620001c08282620001c4565b5050565b60008281526009602090815260408083206001600160a01b038516845290915290205460ff16620001c05760008281526009602090815260408083206001600160a01b03851684529091529020805460ff19166001179055620002243390565b6001600160a01b0316816001600160a01b0316837f2f8788117e7eff1d82e926ec794901d17c78024a50270940304540a733656f0d60405160405180910390a45050565b634e487b7160e01b600052604160045260246000fd5b600181811c908216806200029357607f821691505b602082108103620002b457634e487b7160e01b600052602260045260246000fd5b50919050565b601f8211156200030857600081815260208120601f850160051c81016020861015620002e35750805b601f850160051c820191505b818110156200030457828155600101620002ef565b5050505b505050565b81516001600160401b0381111562000329576200032962000268565b62000341816200033a84546200027e565b84620002ba565b602080601f831160018114620003795760008415620003605750858301515b600019600386901b1c1916600185901b17855562000304565b600085815260208120601f198616915b82811015620003aa5788860151825594840194600190910190840162000389565b5085821015620003c95787850151600019600388901b60f8161c191681555b5050505050600190811b01905550565b612f8b80620003e96000396000f3fe6080604052600436106102675760003560e01c806391d1485411610144578063c87b56dd116100b6578063dce417961161007a578063dce417961461072b578063e1fc334f1461074b578063e985e9c51461076b578063f23a6e61146107b4578063f2fde38b146107e0578063f348589a1461080057600080fd5b8063c87b56dd1461069f578063d10a1a2b146106bf578063d547741f146106d5578063d5cde1f2146106f5578063db065b1d1461071557600080fd5b8063a22cb46511610108578063a22cb465146105bd578063a7bb5803146105dd578063b12dc9911461061c578063b88d4fde14610631578063bc197c8114610644578063c7876ea41461068957600080fd5b806391d148541461053d57806395d89b411461055d578063970d415a1461057257806398710d1e14610592578063a217fddf146105a857600080fd5b806336568abe116101dd57806370a08231116101a157806370a082311461048a578063715018a6146104aa57806372d7d816146104bf5780638c504b44146104df5780638da5cb5b146104ff57806391b7f5ed1461051d57600080fd5b806336568abe146103f757806342842e0e1461041757806351cff8d91461042a57806360e1a2091461044a5780636352211e1461046a57600080fd5b80630f2cdd6c1161022f5780630f2cdd6c1461033057806318160ddd14610354578063217490a41461037257806323b872dd14610394578063248a9ca3146103a75780632f2ff15d146103d757600080fd5b806301ffc9a71461026c57806306fdde03146102a1578063081812fc146102c3578063095ea7b3146102fb5780630ef0699214610310575b600080fd5b34801561027857600080fd5b5061028c61028736600461243e565b610813565b60405190151581526020015b60405180910390f35b3480156102ad57600080fd5b506102b6610824565b60405161029891906124ab565b3480156102cf57600080fd5b506102e36102de3660046124be565b6108b6565b6040516001600160a01b039091168152602001610298565b61030e6103093660046124f3565b6108fa565b005b34801561031c57600080fd5b5061030e61032b36600461262a565b61099a565b34801561033c57600080fd5b50610346600f5481565b604051908152602001610298565b34801561036057600080fd5b50610346600154600054036000190190565b34801561037e57600080fd5b50610387610c25565b60405161029891906126b6565b61030e6103a23660046126fa565b610cf5565b3480156103b357600080fd5b506103466103c23660046124be565b60009081526009602052604090206001015490565b3480156103e357600080fd5b5061030e6103f2366004612736565b610e8a565b34801561040357600080fd5b5061030e610412366004612736565b610eb4565b61030e6104253660046126fa565b610f32565b34801561043657600080fd5b5061030e610445366004612762565b610f4d565b34801561045657600080fd5b5061030e6104653660046127c1565b610fda565b34801561047657600080fd5b506102e36104853660046124be565b6110c9565b34801561049657600080fd5b506103466104a5366004612762565b6110d4565b3480156104b657600080fd5b5061030e611122565b3480156104cb57600080fd5b50600b546102e3906001600160a01b031681565b3480156104eb57600080fd5b506103876104fa3660046124be565b611136565b34801561050b57600080fd5b506008546001600160a01b03166102e3565b34801561052957600080fd5b5061030e6105383660046124be565b611198565b34801561054957600080fd5b5061028c610558366004612736565b6111a5565b34801561056957600080fd5b506102b66111d0565b34801561057e57600080fd5b5061030e61058d36600461262a565b6111df565b34801561059e57600080fd5b5061034660105481565b3480156105b457600080fd5b50610346600081565b3480156105c957600080fd5b5061030e6105d8366004612864565b611447565b3480156105e957600080fd5b506105fd6105f83660046128a0565b6114b3565b6040805160ff9094168452602084019290925290820152606001610298565b34801561062857600080fd5b5061030e61150a565b61030e61063f366004612950565b611537565b34801561065057600080fd5b5061067061065f3660046129b7565b63bc197c8160e01b95945050505050565b6040516001600160e01b03199091168152602001610298565b34801561069557600080fd5b50610346600c5481565b3480156106ab57600080fd5b506102b66106ba3660046124be565b611581565b3480156106cb57600080fd5b5061034660115481565b3480156106e157600080fd5b5061030e6106f0366004612736565b61160a565b34801561070157600080fd5b5061028c610710366004612762565b61162f565b34801561072157600080fd5b50610346600e5481565b34801561073757600080fd5b5061030e6107463660046127c1565b61165e565b34801561075757600080fd5b50600a546102e3906001600160a01b031681565b34801561077757600080fd5b5061028c610786366004612a60565b6001600160a01b03918216600090815260076020908152604080832093909416825291909152205460ff1690565b3480156107c057600080fd5b506106706107cf366004612a8a565b63f23a6e6160e01b95945050505050565b3480156107ec57600080fd5b5061030e6107fb366004612762565b6116f8565b61030e61080e36600461262a565b611771565b600061081e82611a18565b92915050565b60606002805461083390612aee565b80601f016020809104026020016040519081016040528092919081815260200182805461085f90612aee565b80156108ac5780601f10610881576101008083540402835291602001916108ac565b820191906000526020600020905b81548152906001019060200180831161088f57829003601f168201915b5050505050905090565b60006108c182611a3d565b6108de576040516333d1c03960e21b815260040160405180910390fd5b506000908152600660205260409020546001600160a01b031690565b6000610905826110c9565b9050336001600160a01b0382161461093e576109218133610786565b61093e576040516367d9dca160e11b815260040160405180910390fd5b60008281526006602052604080822080546001600160a01b0319166001600160a01b0387811691821790925591518593918516917f8c5be1e5ebec7d5bd14f71427d1e84f3dd0314c0f7b2291e5b200ac8c7c3b92591a4505050565b600e546011541080156109bd57503360009081526012602052604090205460ff16155b6109e25760405162461bcd60e51b81526004016109d990612b28565b60405180910390fd5b3360009081526013602052604090205460041115610a585760405162461bcd60e51b815260206004820152602d60248201527f596f752068617665206e6f74206275792034204e46547320666f7220636c616960448201526c6d20796f75722032206672656560981b60648201526084016109d9565b610a63868686611a72565b610a6e848484611ac5565b60005b8551811015610b2357600a5486516001600160a01b03909116906340c10f19903390899085908110610aa557610aa5612b7e565b60200260200101516040518363ffffffff1660e01b8152600401610ade9291906001600160a01b03929092168252602082015260400190565b600060405180830381600087803b158015610af857600080fd5b505af1158015610b0c573d6000803e3d6000fd5b505050508080610b1b90612baa565b915050610a71565b50610b2e3382611b8f565b600b546001600160a01b03166340c10f1933610b5384683635c9adc5dea00000612bc3565b6040516001600160e01b031960e085901b1681526001600160a01b0390921660048301526024820152604401600060405180830381600087803b158015610b9957600080fd5b505af1158015610bad573d6000803e3d6000fd5b505060118054925090506000610bc283612baa565b90915550503360009081526013602052604081208054839290610be6908490612bda565b909155505033600090815260136020526040902054600603610c1d57336000908152601260205260409020805460ff191660011790555b505050505050565b60606000610c32336110d4565b90506000816001600160401b03811115610c4e57610c4e61251d565b604051908082528060200260200182016040528015610c77578160200160208202803683370190505b509050600060015b610c90600154600054036000190190565b8111610cec5733610ca0826110c9565b6001600160a01b031603610cda5780838381518110610cc157610cc1612b7e565b6020908102919091010152610cd7600183612bda565b91505b80610ce481612baa565b915050610c7f565b50909392505050565b6000610d0082611ba9565b9050836001600160a01b0316816001600160a01b031614610d335760405162a1148160e81b815260040160405180910390fd5b60008281526006602052604090208054338082146001600160a01b03881690911417610d8057610d638633610786565b610d8057604051632ce44b5f60e11b815260040160405180910390fd5b6001600160a01b038516610da757604051633a954ecd60e21b815260040160405180910390fd5b8015610db257600082555b6001600160a01b038681166000908152600560205260408082208054600019019055918716808252919020805460010190554260a01b17600160e11b17600085815260046020526040812091909155600160e11b84169003610e4457600184016000818152600460205260408120549003610e42576000548114610e425760008181526004602052604090208490555b505b83856001600160a01b0316876001600160a01b03167fddf252ad1be2c89b69c2b068fc378daa952ba7f163c4a11628f55a4df523b3ef60405160405180910390a4610c1d565b600082815260096020526040902060010154610ea581611c1f565b610eaf8383611c29565b505050565b6001600160a01b0381163314610f245760405162461bcd60e51b815260206004820152602f60248201527f416363657373436f6e74726f6c3a2063616e206f6e6c792072656e6f756e636560448201526e103937b632b9903337b91039b2b63360891b60648201526084016109d9565b610f2e8282611caf565b5050565b610eaf83838360405180602001604052806000815250611537565b610f55611d16565b60004711610fa55760405162461bcd60e51b815260206004820152601760248201527f4e6f2062616c616e636520746f2077697468647261772100000000000000000060448201526064016109d9565b6040516001600160a01b038216904780156108fc02916000818181858888f19350505050158015610f2e573d6000803e3d6000fd5b33610fe4886110c9565b6001600160a01b03161461103a5760405162461bcd60e51b815260206004820152601d60248201527f54686973204e4654206973206e6f74206f776e656420627920796f752100000060448201526064016109d9565b600a54604051631759616b60e11b81526001600160a01b0390911690632eb2c2d69061107490309033908990899089908990600401612c1f565b600060405180830381600087803b15801561108e57600080fd5b505af11580156110a2573d6000803e3d6000fd5b50505060008881526015602052604090206110bf915087876123c8565b5050505050505050565b600061081e82611ba9565b60006001600160a01b0382166110fd576040516323d3ad8160e21b815260040160405180910390fd5b506001600160a01b03166000908152600560205260409020546001600160401b031690565b61112a611d16565b6111346000611d70565b565b60008181526015602090815260409182902080548351818402810184019094528084526060939283018282801561118c57602002820191906000526020600020905b815481526020019060010190808311611178575b50505050509050919050565b6111a0611d16565b600c55565b60009182526009602090815260408084206001600160a01b0393909316845291905290205460ff1690565b60606003805461083390612aee565b600e5460115410801561120257503360009081526012602052604090205460ff16155b61121e5760405162461bcd60e51b81526004016109d990612b28565b33600090815260136020526040902054600211156112925760405162461bcd60e51b815260206004820152602b60248201527f596f752068617665206e6f74206275792032204e46547320666f7220636c616960448201526a6d20796f7572206672656560a81b60648201526084016109d9565b61129d868686611a72565b6112a8848484611ac5565b60005b855181101561135d57600a5486516001600160a01b03909116906340c10f199033908990859081106112df576112df612b7e565b60200260200101516040518363ffffffff1660e01b81526004016113189291906001600160a01b03929092168252602082015260400190565b600060405180830381600087803b15801561133257600080fd5b505af1158015611346573d6000803e3d6000fd5b50505050808061135590612baa565b9150506112ab565b506113683382611b8f565b600b546001600160a01b03166340c10f193361138d84683635c9adc5dea00000612bc3565b6040516001600160e01b031960e085901b1681526001600160a01b0390921660048301526024820152604401600060405180830381600087803b1580156113d357600080fd5b505af11580156113e7573d6000803e3d6000fd5b5050601180549250905060006113fc83612baa565b90915550503360009081526013602052604081208054839290611420908490612bda565b9091555050336000908152601260205260409020805460ff19166001179055505050505050565b3360008181526007602090815260408083206001600160a01b03871680855290835292819020805460ff191686151590811790915590519081529192917f17307eab39ab6107e8899845ad3d59bd9653f200f220920489ca2b5937696c31910160405180910390a35050565b600080806114c46020828688612c7e565b6114cd91612ca8565b91506114dd604060208688612c7e565b6114e691612ca8565b90506114f58460408188612c7e565b6114fe91612cc6565b60f81c92509250925092565b611512611d16565b61113433611527600154600054036000190190565b611532906001612bda565b611dc2565b611542848484610cf5565b6001600160a01b0383163b1561157b5761155e84848484611ec0565b61157b576040516368d2bf6b60e11b815260040160405180910390fd5b50505050565b606061158c82611a3d565b6115d85760405162461bcd60e51b815260206004820152601f60248201527f55524920717565727920666f72206e6f6e6578697374656e7420746f6b656e0060448201526064016109d9565b60166115e383611fac565b6040516020016115f4929190612d12565b6040516020818303038152906040529050919050565b60008281526009602052604090206001015461162581611c1f565b610eaf8383611caf565b6001600160a01b03811660009081526012602052604081205460ff1661165657600061081e565b600192915050565b33611668886110c9565b6001600160a01b0316146116be5760405162461bcd60e51b815260206004820152601d60248201527f54686973204e4654206973206e6f74206f776e656420627920796f752100000060448201526064016109d9565b600a54604051631759616b60e11b81526001600160a01b0390911690632eb2c2d69061107490339030908990899089908990600401612c1f565b611700611d16565b6001600160a01b0381166117655760405162461bcd60e51b815260206004820152602660248201527f4f776e61626c653a206e6577206f776e657220697320746865207a65726f206160448201526564647265737360d01b60648201526084016109d9565b61176e81611d70565b50565b600c5461177e8282612bc3565b3410156117c15760405162461bcd60e51b81526020600482015260116024820152704e6f7420656e6f7567682046756e64732160781b60448201526064016109d9565b600f5482111561182b5760405162461bcd60e51b815260206004820152602f60248201527f4d61782036204e465473207065722077616c6c65742028322066726565204e4660448201526e5473204d617820696e636c7564652960881b60648201526084016109d9565b600d5482611840600154600054036000190190565b61184a9190612bda565b11156118915760405162461bcd60e51b8152602060048201526016602482015275105b1b081d1a19481391951cc81dd95c99481cdbdb1960521b60448201526064016109d9565b61189c878787611a72565b6118a7858585611ac5565b60005b865181101561195c57600a5487516001600160a01b03909116906340c10f199033908a90859081106118de576118de612b7e565b60200260200101516040518363ffffffff1660e01b81526004016119179291906001600160a01b03929092168252602082015260400190565b600060405180830381600087803b15801561193157600080fd5b505af1158015611945573d6000803e3d6000fd5b50505050808061195490612baa565b9150506118aa565b506119673383611b8f565b600b546001600160a01b03166340c10f193361198c85683635c9adc5dea00000612bc3565b6040516001600160e01b031960e085901b1681526001600160a01b0390921660048301526024820152604401600060405180830381600087803b1580156119d257600080fd5b505af11580156119e6573d6000803e3d6000fd5b50503360009081526013602052604081208054869450909250611a0a908490612bda565b909155505050505050505050565b60006001600160e01b03198216630271189760e51b148061081e575061081e826120ac565b600081600111158015611a51575060005482105b801561081e575050600090815260046020526040902054600160e01b161590565b6000611a7e84846120e1565b905081811461157b5760405162461bcd60e51b8152602060048201526013602482015272092dcecc2d8d2c840dacae6e6c2ceca90c2e6d606b1b60448201526064016109d9565b6000806000611ad485856114b3565b604080516000808252602082018084528c905260ff861692820192909252606081018490526080810183905293965091945092509060019060a0016020604051602081039080840390855afa158015611b31573d6000803e3d6000fd5b505050602060405103519050611b49601454826111a5565b611b865760405162461bcd60e51b815260206004820152600e60248201526d24b73b30b634b21029b4b3b732b960911b60448201526064016109d9565b50505050505050565b610f2e82826040518060200160405280600081525061215c565b60008180600111611c0657600054811015611c065760008181526004602052604081205490600160e01b82169003611c04575b80600003611bfd575060001901600081815260046020526040902054611bdc565b9392505050565b505b604051636f96cda160e11b815260040160405180910390fd5b61176e81336121c9565b611c3382826111a5565b610f2e5760008281526009602090815260408083206001600160a01b03851684529091529020805460ff19166001179055611c6b3390565b6001600160a01b0316816001600160a01b0316837f2f8788117e7eff1d82e926ec794901d17c78024a50270940304540a733656f0d60405160405180910390a45050565b611cb982826111a5565b15610f2e5760008281526009602090815260408083206001600160a01b0385168085529252808320805460ff1916905551339285917ff6391f5c32d9c69d2a47ea670b442974b53935d1edc7fd64eb21e047a839171b9190a45050565b6008546001600160a01b031633146111345760405162461bcd60e51b815260206004820181905260248201527f4f776e61626c653a2063616c6c6572206973206e6f7420746865206f776e657260448201526064016109d9565b600880546001600160a01b038381166001600160a01b0319831681179093556040519116919082907f8be0079c531659141344cd1fd0a4f28419497f9722a3daafe3b4186f6b6457e090600090a35050565b6000805490829003611de75760405163b562e8dd60e01b815260040160405180910390fd5b6001600160a01b03831660008181526005602090815260408083208054680100000000000000018802019055848352600490915281206001851460e11b4260a01b178317905582840190839083907fddf252ad1be2c89b69c2b068fc378daa952ba7f163c4a11628f55a4df523b3ef8180a4600183015b818114611e9657808360007fddf252ad1be2c89b69c2b068fc378daa952ba7f163c4a11628f55a4df523b3ef600080a4600101611e5e565b5081600003611eb757604051622e076360e81b815260040160405180910390fd5b60005550505050565b604051630a85bd0160e11b81526000906001600160a01b0385169063150b7a0290611ef5903390899088908890600401612dd0565b6020604051808303816000875af1925050508015611f30575060408051601f3d908101601f19168201909252611f2d91810190612e0d565b60015b611f8e573d808015611f5e576040519150601f19603f3d011682016040523d82523d6000602084013e611f63565b606091505b508051600003611f86576040516368d2bf6b60e11b815260040160405180910390fd5b805181602001fd5b6001600160e01b031916630a85bd0160e11b1490505b949350505050565b606081600003611fd35750506040805180820190915260018152600360fc1b602082015290565b8160005b8115611ffd5780611fe781612baa565b9150611ff69050600a83612e40565b9150611fd7565b6000816001600160401b038111156120175761201761251d565b6040519080825280601f01601f191660200182016040528015612041576020820181803683370190505b5090505b8415611fa457612056600183612e54565b9150612063600a86612e67565b61206e906030612bda565b60f81b81838151811061208357612083612b7e565b60200101906001600160f81b031916908160001a9053506120a5600a86612e40565b9450612045565b60006001600160e01b03198216637965db0b60e01b148061081e57506301ffc9a760e01b6001600160e01b031983161461081e565b60008083836040516020016120f7929190612e7b565b60408051808303601f1901815282825280516020918201207f19457468657265756d205369676e6564204d6573736167653a0a33320000000082850152603c8085019190915282518085039091018152605c9093019091528151910120949350505050565b6121668383611dc2565b6001600160a01b0383163b15610eaf576000548281035b6121906000868380600101945086611ec0565b6121ad576040516368d2bf6b60e11b815260040160405180910390fd5b81811061217d5781600054146121c257600080fd5b5050505050565b6121d382826111a5565b610f2e576121eb816001600160a01b0316601461222d565b6121f683602061222d565b604051602001612207929190612ec9565b60408051601f198184030181529082905262461bcd60e51b82526109d9916004016124ab565b6060600061223c836002612bc3565b612247906002612bda565b6001600160401b0381111561225e5761225e61251d565b6040519080825280601f01601f191660200182016040528015612288576020820181803683370190505b509050600360fc1b816000815181106122a3576122a3612b7e565b60200101906001600160f81b031916908160001a905350600f60fb1b816001815181106122d2576122d2612b7e565b60200101906001600160f81b031916908160001a90535060006122f6846002612bc3565b612301906001612bda565b90505b6001811115612379576f181899199a1a9b1b9c1cb0b131b232b360811b85600f166010811061233557612335612b7e565b1a60f81b82828151811061234b5761234b612b7e565b60200101906001600160f81b031916908160001a90535060049490941c9361237281612f3e565b9050612304565b508315611bfd5760405162461bcd60e51b815260206004820181905260248201527f537472696e67733a20686578206c656e67746820696e73756666696369656e7460448201526064016109d9565b828054828255906000526020600020908101928215612403579160200282015b828111156124035782358255916020019190600101906123e8565b5061240f929150612413565b5090565b5b8082111561240f5760008155600101612414565b6001600160e01b03198116811461176e57600080fd5b60006020828403121561245057600080fd5b8135611bfd81612428565b60005b8381101561247657818101518382015260200161245e565b50506000910152565b6000815180845261249781602086016020860161245b565b601f01601f19169290920160200192915050565b602081526000611bfd602083018461247f565b6000602082840312156124d057600080fd5b5035919050565b80356001600160a01b03811681146124ee57600080fd5b919050565b6000806040838503121561250657600080fd5b61250f836124d7565b946020939093013593505050565b634e487b7160e01b600052604160045260246000fd5b604051601f8201601f191681016001600160401b038111828210171561255b5761255b61251d565b604052919050565b600082601f83011261257457600080fd5b813560206001600160401b0382111561258f5761258f61251d565b8160051b61259e828201612533565b92835284810182019282810190878511156125b857600080fd5b83870192505b848310156125d7578235825291830191908301906125be565b979650505050505050565b60008083601f8401126125f457600080fd5b5081356001600160401b0381111561260b57600080fd5b60208301915083602082850101111561262357600080fd5b9250929050565b60008060008060008060a0878903121561264357600080fd5b61264c876124d7565b955060208701356001600160401b038082111561266857600080fd5b6126748a838b01612563565b965060408901359550606089013591508082111561269157600080fd5b5061269e89828a016125e2565b979a9699509497949695608090950135949350505050565b6020808252825182820181905260009190848201906040850190845b818110156126ee578351835292840192918401916001016126d2565b50909695505050505050565b60008060006060848603121561270f57600080fd5b612718846124d7565b9250612726602085016124d7565b9150604084013590509250925092565b6000806040838503121561274957600080fd5b82359150612759602084016124d7565b90509250929050565b60006020828403121561277457600080fd5b611bfd826124d7565b60008083601f84011261278f57600080fd5b5081356001600160401b038111156127a657600080fd5b6020830191508360208260051b850101111561262357600080fd5b60008060008060008060006080888a0312156127dc57600080fd5b8735965060208801356001600160401b03808211156127fa57600080fd5b6128068b838c0161277d565b909850965060408a013591508082111561281f57600080fd5b61282b8b838c0161277d565b909650945060608a013591508082111561284457600080fd5b506128518a828b0161277d565b989b979a50959850939692959293505050565b6000806040838503121561287757600080fd5b612880836124d7565b91506020830135801515811461289557600080fd5b809150509250929050565b600080602083850312156128b357600080fd5b82356001600160401b038111156128c957600080fd5b6128d5858286016125e2565b90969095509350505050565b600082601f8301126128f257600080fd5b81356001600160401b0381111561290b5761290b61251d565b61291e601f8201601f1916602001612533565b81815284602083860101111561293357600080fd5b816020850160208301376000918101602001919091529392505050565b6000806000806080858703121561296657600080fd5b61296f856124d7565b935061297d602086016124d7565b92506040850135915060608501356001600160401b0381111561299f57600080fd5b6129ab878288016128e1565b91505092959194509250565b600080600080600060a086880312156129cf57600080fd5b6129d8866124d7565b94506129e6602087016124d7565b935060408601356001600160401b0380821115612a0257600080fd5b612a0e89838a01612563565b94506060880135915080821115612a2457600080fd5b612a3089838a01612563565b93506080880135915080821115612a4657600080fd5b50612a53888289016128e1565b9150509295509295909350565b60008060408385031215612a7357600080fd5b612a7c836124d7565b9150612759602084016124d7565b600080600080600060a08688031215612aa257600080fd5b612aab866124d7565b9450612ab9602087016124d7565b9350604086013592506060860135915060808601356001600160401b03811115612ae257600080fd5b612a53888289016128e1565b600181811c90821680612b0257607f821691505b602082108103612b2257634e487b7160e01b600052602260045260246000fd5b50919050565b60208082526036908201527f667265654d696e7420697320617661696c61626c65206a757374206f6e6520746040820152750d2daca40c2dcc840ccdee44064409c8ca8e640dac2f60531b606082015260800190565b634e487b7160e01b600052603260045260246000fd5b634e487b7160e01b600052601160045260246000fd5b600060018201612bbc57612bbc612b94565b5060010190565b808202811582820484141761081e5761081e612b94565b8082018082111561081e5761081e612b94565b81835260006001600160fb1b03831115612c0657600080fd5b8260051b80836020870137939093016020019392505050565b6001600160a01b0387811682528616602082015260a060408201819052600090612c4c9083018688612bed565b8281036060840152612c5f818587612bed565b8381036080909401939093525050600081526020019695505050505050565b60008085851115612c8e57600080fd5b83861115612c9b57600080fd5b5050820193919092039150565b8035602083101561081e57600019602084900360031b1b1692915050565b6001600160f81b03198135818116916001851015612cee5780818660010360031b1b83161692505b505092915050565b60008151612d0881856020860161245b565b9290920192915050565b600080845481600182811c915080831680612d2e57607f831692505b60208084108203612d4d57634e487b7160e01b86526022600452602486fd5b818015612d615760018114612d7657612da3565b60ff1986168952841515850289019650612da3565b60008b81526020902060005b86811015612d9b5781548b820152908501908301612d82565b505084890196505b505050505050612dc7612db68286612cf6565b64173539b7b760d91b815260050190565b95945050505050565b6001600160a01b0385811682528416602082015260408101839052608060608201819052600090612e039083018461247f565b9695505050505050565b600060208284031215612e1f57600080fd5b8151611bfd81612428565b634e487b7160e01b600052601260045260246000fd5b600082612e4f57612e4f612e2a565b500490565b8181038181111561081e5761081e612b94565b600082612e7657612e76612e2a565b500690565b6bffffffffffffffffffffffff198360601b1681526000601482018351602080860160005b83811015612ebc57815185529382019390820190600101612ea0565b5092979650505050505050565b7f416363657373436f6e74726f6c3a206163636f756e7420000000000000000000815260008351612f0181601785016020880161245b565b7001034b99036b4b9b9b4b733903937b6329607d1b6017918401918201528351612f3281602884016020880161245b565b01602801949350505050565b600081612f4d57612f4d612b94565b50600019019056fea26469706673582212201444cd45bd71b76e5edb8802b15e7a7fba2d5dc2525d2c02ade73285e1c5321464736f6c6343000811003368747470733a2f2f74616d61676f73616e2e667261312e6469676974616c6f6365616e7370616365732e636f6d2f74616d61676f73616e4d657461646174612f",
  "linkReferences": {},
  "deployedLinkReferences": {}
}