{
  "_format": "hh-sol-artifact-1",
  "contractName": "Traits",
  "sourceName": "contracts/Traits.sol",
  "abi": [
    {
      "inputs": [],
      "stateMutability": "nonpayable",
      "type": "constructor"
    },
    {
      "anonymous": false,
      "inputs": [
        {
          "indexed": true,
          "internalType": "address",
          "name": "account",
          "type": "address"
        },
        {
          "indexed": true,
          "internalType": "address",
          "name": "operator",
          "type": "address"
        },
        {
          "indexed": false,
          "internalType": "bool",
          "name": "approved",
          "type": "bool"
        }
      ],
      "name": "ApprovalForAll",
      "type": "event"
    },
    {
      "anonymous": false,
      "inputs": [
        {
          "indexed": true,
          "internalType": "address",
          "name": "previousOwner",
          "type": "address"
        },
        {
          "indexed": true,
          "internalType": "address",
          "name": "newOwner",
          "type": "address"
        }
      ],
      "name": "OwnershipTransferred",
      "type": "event"
    },
    {
      "anonymous": false,
      "inputs": [
        {
          "indexed": true,
          "internalType": "address",
          "name": "operator",
          "type": "address"
        },
        {
          "indexed": true,
          "internalType": "address",
          "name": "from",
          "type": "address"
        },
        {
          "indexed": true,
          "internalType": "address",
          "name": "to",
          "type": "address"
        },
        {
          "indexed": false,
          "internalType": "uint256[]",
          "name": "ids",
          "type": "uint256[]"
        },
        {
          "indexed": false,
          "internalType": "uint256[]",
          "name": "values",
          "type": "uint256[]"
        }
      ],
      "name": "TransferBatch",
      "type": "event"
    },
    {
      "anonymous": false,
      "inputs": [
        {
          "indexed": true,
          "internalType": "address",
          "name": "operator",
          "type": "address"
        },
        {
          "indexed": true,
          "internalType": "address",
          "name": "from",
          "type": "address"
        },
        {
          "indexed": true,
          "internalType": "address",
          "name": "to",
          "type": "address"
        },
        {
          "indexed": false,
          "internalType": "uint256",
          "name": "id",
          "type": "uint256"
        },
        {
          "indexed": false,
          "internalType": "uint256",
          "name": "value",
          "type": "uint256"
        }
      ],
      "name": "TransferSingle",
      "type": "event"
    },
    {
      "anonymous": false,
      "inputs": [
        {
          "indexed": false,
          "internalType": "string",
          "name": "value",
          "type": "string"
        },
        {
          "indexed": true,
          "internalType": "uint256",
          "name": "id",
          "type": "uint256"
        }
      ],
      "name": "URI",
      "type": "event"
    },
    {
      "inputs": [
        {
          "internalType": "address",
          "name": "account",
          "type": "address"
        },
        {
          "internalType": "uint256",
          "name": "id",
          "type": "uint256"
        }
      ],
      "name": "balanceOf",
      "outputs": [
        {
          "internalType": "uint256",
          "name": "",
          "type": "uint256"
        }
      ],
      "stateMutability": "view",
      "type": "function"
    },
    {
      "inputs": [
        {
          "internalType": "address[]",
          "name": "accounts",
          "type": "address[]"
        },
        {
          "internalType": "uint256[]",
          "name": "ids",
          "type": "uint256[]"
        }
      ],
      "name": "balanceOfBatch",
      "outputs": [
        {
          "internalType": "uint256[]",
          "name": "",
          "type": "uint256[]"
        }
      ],
      "stateMutability": "view",
      "type": "function"
    },
    {
      "inputs": [
        {
          "internalType": "address",
          "name": "account",
          "type": "address"
        },
        {
          "internalType": "address",
          "name": "operator",
          "type": "address"
        }
      ],
      "name": "isApprovedForAll",
      "outputs": [
        {
          "internalType": "bool",
          "name": "",
          "type": "bool"
        }
      ],
      "stateMutability": "view",
      "type": "function"
    },
    {
      "inputs": [
        {
          "internalType": "address",
          "name": "to",
          "type": "address"
        },
        {
          "internalType": "uint256",
          "name": "tokenID",
          "type": "uint256"
        }
      ],
      "name": "mint",
      "outputs": [],
      "stateMutability": "nonpayable",
      "type": "function"
    },
    {
      "inputs": [],
      "name": "owner",
      "outputs": [
        {
          "internalType": "address",
          "name": "",
          "type": "address"
        }
      ],
      "stateMutability": "view",
      "type": "function"
    },
    {
      "inputs": [],
      "name": "renounceOwnership",
      "outputs": [],
      "stateMutability": "nonpayable",
      "type": "function"
    },
    {
      "inputs": [
        {
          "internalType": "address",
          "name": "from",
          "type": "address"
        },
        {
          "internalType": "address",
          "name": "to",
          "type": "address"
        },
        {
          "internalType": "uint256[]",
          "name": "ids",
          "type": "uint256[]"
        },
        {
          "internalType": "uint256[]",
          "name": "amounts",
          "type": "uint256[]"
        },
        {
          "internalType": "bytes",
          "name": "data",
          "type": "bytes"
        }
      ],
      "name": "safeBatchTransferFrom",
      "outputs": [],
      "stateMutability": "nonpayable",
      "type": "function"
    },
    {
      "inputs": [
        {
          "internalType": "address",
          "name": "from",
          "type": "address"
        },
        {
          "internalType": "address",
          "name": "to",
          "type": "address"
        },
        {
          "internalType": "uint256",
          "name": "id",
          "type": "uint256"
        },
        {
          "internalType": "uint256",
          "name": "amount",
          "type": "uint256"
        },
        {
          "internalType": "bytes",
          "name": "data",
          "type": "bytes"
        }
      ],
      "name": "safeTransferFrom",
      "outputs": [],
      "stateMutability": "nonpayable",
      "type": "function"
    },
    {
      "inputs": [
        {
          "internalType": "address",
          "name": "operator",
          "type": "address"
        },
        {
          "internalType": "bool",
          "name": "approved",
          "type": "bool"
        }
      ],
      "name": "setApprovalForAll",
      "outputs": [],
      "stateMutability": "nonpayable",
      "type": "function"
    },
    {
      "inputs": [
        {
          "internalType": "bytes4",
          "name": "interfaceId",
          "type": "bytes4"
        }
      ],
      "name": "supportsInterface",
      "outputs": [
        {
          "internalType": "bool",
          "name": "",
          "type": "bool"
        }
      ],
      "stateMutability": "view",
      "type": "function"
    },
    {
      "inputs": [
        {
          "internalType": "address",
          "name": "newOwner",
          "type": "address"
        }
      ],
      "name": "transferOwnership",
      "outputs": [],
      "stateMutability": "nonpayable",
      "type": "function"
    },
    {
      "inputs": [
        {
          "internalType": "uint256",
          "name": "tokenID",
          "type": "uint256"
        }
      ],
      "name": "uri",
      "outputs": [
        {
          "internalType": "string",
          "name": "",
          "type": "string"
        }
      ],
      "stateMutability": "view",
      "type": "function"
    }
  ],
  "bytecode": "0x60e0604090815260808181529062001a3460a03960049062000022908262000166565b503480156200003057600080fd5b506040805160208101909152600081526200004b816200005d565b5062000057336200006f565b62000232565b60026200006b828262000166565b5050565b600380546001600160a01b038381166001600160a01b0319831681179093556040519116919082907f8be0079c531659141344cd1fd0a4f28419497f9722a3daafe3b4186f6b6457e090600090a35050565b634e487b7160e01b600052604160045260246000fd5b600181811c90821680620000ec57607f821691505b6020821081036200010d57634e487b7160e01b600052602260045260246000fd5b50919050565b601f8211156200016157600081815260208120601f850160051c810160208610156200013c5750805b601f850160051c820191505b818110156200015d5782815560010162000148565b5050505b505050565b81516001600160401b03811115620001825762000182620000c1565b6200019a81620001938454620000d7565b8462000113565b602080601f831160018114620001d25760008415620001b95750858301515b600019600386901b1c1916600185901b1785556200015d565b600085815260208120601f198616915b828110156200020357888601518255948401946001909101908401620001e2565b5085821015620002225787850151600019600388901b60f8161c191681555b5050505050600190811b01905550565b6117f280620002426000396000f3fe608060405234801561001057600080fd5b50600436106100b35760003560e01c8063715018a611610071578063715018a6146101695780638da5cb5b14610171578063a22cb4651461018c578063e985e9c51461019f578063f242432a146101db578063f2fde38b146101ee57600080fd5b8062fdd58e146100b857806301ffc9a7146100de5780630e89341c146101015780632eb2c2d61461012157806340c10f19146101365780634e1273f414610149575b600080fd5b6100cb6100c6366004610ebe565b610201565b6040519081526020015b60405180910390f35b6100f16100ec366004610efe565b61029a565b60405190151581526020016100d5565b61011461010f366004610f22565b6102ea565b6040516100d59190610f8b565b61013461012f3660046110ea565b61031e565b005b610134610144366004610ebe565b61036a565b61015c610157366004611194565b61038a565b6040516100d5919061129a565b6101346104b4565b6003546040516001600160a01b0390911681526020016100d5565b61013461019a3660046112ad565b6104c8565b6100f16101ad3660046112e9565b6001600160a01b03918216600090815260016020908152604080832093909416825291909152205460ff1690565b6101346101e936600461131c565b6104d3565b6101346101fc366004611381565b610518565b60006001600160a01b0383166102715760405162461bcd60e51b815260206004820152602a60248201527f455243313135353a2061646472657373207a65726f206973206e6f742061207660448201526930b634b21037bbb732b960b11b60648201526084015b60405180910390fd5b506000818152602081815260408083206001600160a01b03861684529091529020545b92915050565b60006001600160e01b03198216636cdb3d1360e11b14806102cb57506001600160e01b031982166303a24d0760e21b145b8061029457506301ffc9a760e01b6001600160e01b0319831614610294565b606060046102f783610591565b6040516020016103089291906113b8565b6040516020818303038152906040529050919050565b6001600160a01b03851633148061033a575061033a85336101ad565b6103565760405162461bcd60e51b815260040161026890611462565b610363858585858561069a565b5050505050565b6103868282600160405180602001604052806000815250610877565b5050565b606081518351146103ef5760405162461bcd60e51b815260206004820152602960248201527f455243313135353a206163636f756e747320616e6420696473206c656e677468604482015268040dad2e6dac2e8c6d60bb1b6064820152608401610268565b6000835167ffffffffffffffff81111561040b5761040b610f9e565b604051908082528060200260200182016040528015610434578160200160208202803683370190505b50905060005b84518110156104ac5761047f858281518110610458576104586114b1565b6020026020010151858381518110610472576104726114b1565b6020026020010151610201565b828281518110610491576104916114b1565b60209081029190910101526104a5816114dd565b905061043a565b509392505050565b6104bc61098b565b6104c660006109e5565b565b610386338383610a37565b6001600160a01b0385163314806104ef57506104ef85336101ad565b61050b5760405162461bcd60e51b815260040161026890611462565b6103638585858585610b17565b61052061098b565b6001600160a01b0381166105855760405162461bcd60e51b815260206004820152602660248201527f4f776e61626c653a206e6577206f776e657220697320746865207a65726f206160448201526564647265737360d01b6064820152608401610268565b61058e816109e5565b50565b6060816000036105b85750506040805180820190915260018152600360fc1b602082015290565b8160005b81156105e257806105cc816114dd565b91506105db9050600a8361150c565b91506105bc565b60008167ffffffffffffffff8111156105fd576105fd610f9e565b6040519080825280601f01601f191660200182016040528015610627576020820181803683370190505b5090505b84156106925761063c600183611520565b9150610649600a86611533565b610654906030611547565b60f81b818381518110610669576106696114b1565b60200101906001600160f81b031916908160001a90535061068b600a8661150c565b945061062b565b949350505050565b81518351146106fc5760405162461bcd60e51b815260206004820152602860248201527f455243313135353a2069647320616e6420616d6f756e7473206c656e677468206044820152670dad2e6dac2e8c6d60c31b6064820152608401610268565b6001600160a01b0384166107225760405162461bcd60e51b81526004016102689061155a565b3360005b8451811015610809576000858281518110610743576107436114b1565b602002602001015190506000858381518110610761576107616114b1565b602090810291909101810151600084815280835260408082206001600160a01b038e1683529093529190912054909150818110156107b15760405162461bcd60e51b81526004016102689061159f565b6000838152602081815260408083206001600160a01b038e8116855292528083208585039055908b168252812080548492906107ee908490611547565b9250508190555050505080610802906114dd565b9050610726565b50846001600160a01b0316866001600160a01b0316826001600160a01b03167f4a39dc06d4c0dbc64b70af90fd698a233a518aa5d07e595d983b8c0526c8f7fb87876040516108599291906115e9565b60405180910390a461086f818787878787610c41565b505050505050565b6001600160a01b0384166108d75760405162461bcd60e51b815260206004820152602160248201527f455243313135353a206d696e7420746f20746865207a65726f206164647265736044820152607360f81b6064820152608401610268565b3360006108e385610d9c565b905060006108f085610d9c565b90506000868152602081815260408083206001600160a01b038b16845290915281208054879290610922908490611547565b909155505060408051878152602081018790526001600160a01b03808a1692600092918716917fc3d58168c5ae7397731d063d5bbf3d657854427343f4c083240f7aacaa2d0f62910160405180910390a461098283600089898989610de7565b50505050505050565b6003546001600160a01b031633146104c65760405162461bcd60e51b815260206004820181905260248201527f4f776e61626c653a2063616c6c6572206973206e6f7420746865206f776e65726044820152606401610268565b600380546001600160a01b038381166001600160a01b0319831681179093556040519116919082907f8be0079c531659141344cd1fd0a4f28419497f9722a3daafe3b4186f6b6457e090600090a35050565b816001600160a01b0316836001600160a01b031603610aaa5760405162461bcd60e51b815260206004820152602960248201527f455243313135353a2073657474696e6720617070726f76616c20737461747573604482015268103337b91039b2b63360b91b6064820152608401610268565b6001600160a01b03838116600081815260016020908152604080832094871680845294825291829020805460ff191686151590811790915591519182527f17307eab39ab6107e8899845ad3d59bd9653f200f220920489ca2b5937696c31910160405180910390a3505050565b6001600160a01b038416610b3d5760405162461bcd60e51b81526004016102689061155a565b336000610b4985610d9c565b90506000610b5685610d9c565b90506000868152602081815260408083206001600160a01b038c16845290915290205485811015610b995760405162461bcd60e51b81526004016102689061159f565b6000878152602081815260408083206001600160a01b038d8116855292528083208985039055908a16825281208054889290610bd6908490611547565b909155505060408051888152602081018890526001600160a01b03808b16928c821692918816917fc3d58168c5ae7397731d063d5bbf3d657854427343f4c083240f7aacaa2d0f62910160405180910390a4610c36848a8a8a8a8a610de7565b505050505050505050565b6001600160a01b0384163b1561086f5760405163bc197c8160e01b81526001600160a01b0385169063bc197c8190610c85908990899088908890889060040161160e565b6020604051808303816000875af1925050508015610cc0575060408051601f3d908101601f19168201909252610cbd9181019061166c565b60015b610d6c57610ccc611689565b806308c379a003610d055750610ce06116a5565b80610ceb5750610d07565b8060405162461bcd60e51b81526004016102689190610f8b565b505b60405162461bcd60e51b815260206004820152603460248201527f455243313135353a207472616e7366657220746f206e6f6e20455243313135356044820152732932b1b2b4bb32b91034b6b83632b6b2b73a32b960611b6064820152608401610268565b6001600160e01b0319811663bc197c8160e01b146109825760405162461bcd60e51b81526004016102689061172f565b60408051600180825281830190925260609160009190602080830190803683370190505090508281600081518110610dd657610dd66114b1565b602090810291909101015292915050565b6001600160a01b0384163b1561086f5760405163f23a6e6160e01b81526001600160a01b0385169063f23a6e6190610e2b9089908990889088908890600401611777565b6020604051808303816000875af1925050508015610e66575060408051601f3d908101601f19168201909252610e639181019061166c565b60015b610e7257610ccc611689565b6001600160e01b0319811663f23a6e6160e01b146109825760405162461bcd60e51b81526004016102689061172f565b80356001600160a01b0381168114610eb957600080fd5b919050565b60008060408385031215610ed157600080fd5b610eda83610ea2565b946020939093013593505050565b6001600160e01b03198116811461058e57600080fd5b600060208284031215610f1057600080fd5b8135610f1b81610ee8565b9392505050565b600060208284031215610f3457600080fd5b5035919050565b60005b83811015610f56578181015183820152602001610f3e565b50506000910152565b60008151808452610f77816020860160208601610f3b565b601f01601f19169290920160200192915050565b602081526000610f1b6020830184610f5f565b634e487b7160e01b600052604160045260246000fd5b601f8201601f1916810167ffffffffffffffff81118282101715610fda57610fda610f9e565b6040525050565b600067ffffffffffffffff821115610ffb57610ffb610f9e565b5060051b60200190565b600082601f83011261101657600080fd5b8135602061102382610fe1565b6040516110308282610fb4565b83815260059390931b850182019282810191508684111561105057600080fd5b8286015b8481101561106b5780358352918301918301611054565b509695505050505050565b600082601f83011261108757600080fd5b813567ffffffffffffffff8111156110a1576110a1610f9e565b6040516110b8601f8301601f191660200182610fb4565b8181528460208386010111156110cd57600080fd5b816020850160208301376000918101602001919091529392505050565b600080600080600060a0868803121561110257600080fd5b61110b86610ea2565b945061111960208701610ea2565b9350604086013567ffffffffffffffff8082111561113657600080fd5b61114289838a01611005565b9450606088013591508082111561115857600080fd5b61116489838a01611005565b9350608088013591508082111561117a57600080fd5b5061118788828901611076565b9150509295509295909350565b600080604083850312156111a757600080fd5b823567ffffffffffffffff808211156111bf57600080fd5b818501915085601f8301126111d357600080fd5b813560206111e082610fe1565b6040516111ed8282610fb4565b83815260059390931b850182019282810191508984111561120d57600080fd5b948201945b838610156112325761122386610ea2565b82529482019490820190611212565b9650508601359250508082111561124857600080fd5b5061125585828601611005565b9150509250929050565b600081518084526020808501945080840160005b8381101561128f57815187529582019590820190600101611273565b509495945050505050565b602081526000610f1b602083018461125f565b600080604083850312156112c057600080fd5b6112c983610ea2565b9150602083013580151581146112de57600080fd5b809150509250929050565b600080604083850312156112fc57600080fd5b61130583610ea2565b915061131360208401610ea2565b90509250929050565b600080600080600060a0868803121561133457600080fd5b61133d86610ea2565b945061134b60208701610ea2565b93506040860135925060608601359150608086013567ffffffffffffffff81111561137557600080fd5b61118788828901611076565b60006020828403121561139357600080fd5b610f1b82610ea2565b600081516113ae818560208601610f3b565b9290920192915050565b600080845481600182811c9150808316806113d457607f831692505b602080841082036113f357634e487b7160e01b86526022600452602486fd5b818015611407576001811461141c57611449565b60ff1986168952841515850289019650611449565b60008b81526020902060005b868110156114415781548b820152908501908301611428565b505084890196505b505050505050611459818561139c565b95945050505050565b6020808252602f908201527f455243313135353a2063616c6c6572206973206e6f7420746f6b656e206f776e60408201526e195c881b9bdc88185c1c1c9bdd9959608a1b606082015260800190565b634e487b7160e01b600052603260045260246000fd5b634e487b7160e01b600052601160045260246000fd5b6000600182016114ef576114ef6114c7565b5060010190565b634e487b7160e01b600052601260045260246000fd5b60008261151b5761151b6114f6565b500490565b81810381811115610294576102946114c7565b600082611542576115426114f6565b500690565b80820180821115610294576102946114c7565b60208082526025908201527f455243313135353a207472616e7366657220746f20746865207a65726f206164604082015264647265737360d81b606082015260800190565b6020808252602a908201527f455243313135353a20696e73756666696369656e742062616c616e636520666f60408201526939103a3930b739b332b960b11b606082015260800190565b6040815260006115fc604083018561125f565b8281036020840152611459818561125f565b6001600160a01b0386811682528516602082015260a06040820181905260009061163a9083018661125f565b828103606084015261164c818661125f565b905082810360808401526116608185610f5f565b98975050505050505050565b60006020828403121561167e57600080fd5b8151610f1b81610ee8565b600060033d11156116a25760046000803e5060005160e01c5b90565b600060443d10156116b35790565b6040516003193d81016004833e81513d67ffffffffffffffff81602484011181841117156116e357505050505090565b82850191508151818111156116fb5750505050505090565b843d87010160208285010111156117155750505050505090565b61172460208286010187610fb4565b509095945050505050565b60208082526028908201527f455243313135353a204552433131353552656365697665722072656a656374656040820152676420746f6b656e7360c01b606082015260800190565b6001600160a01b03868116825285166020820152604081018490526060810183905260a0608082018190526000906117b190830184610f5f565b97965050505050505056fea264697066735822122022e3dfaae1c63ca34f4b542f91b4d17cee048de4ab7015820be040880c93059964736f6c6343000811003368747470733a2f2f74616d61676f73616e2d7365727665722d636d6834712e6f6e6469676974616c6f6365616e2e6170702f6d6574616461746154726169742f",
  "linkReferences": {},
  "deployedLinkReferences": {}
}